{
  "contractName": "SousChef",
  "abi": [
    {
      "inputs": [
        {
          "internalType": "contract IBEP20",
          "name": "_syrup",
          "type": "address"
        },
        {
          "internalType": "uint256",
          "name": "_rewardPerBlock",
          "type": "uint256"
        },
        {
          "internalType": "uint256",
          "name": "_startBlock",
          "type": "uint256"
        },
        {
          "internalType": "uint256",
          "name": "_endBlock",
          "type": "uint256"
        }
      ],
      "stateMutability": "nonpayable",
      "type": "constructor"
    },
    {
      "anonymous": false,
      "inputs": [
        {
          "indexed": true,
          "internalType": "address",
          "name": "user",
          "type": "address"
        },
        {
          "indexed": false,
          "internalType": "uint256",
          "name": "amount",
          "type": "uint256"
        }
      ],
      "name": "Deposit",
      "type": "event"
    },
    {
      "anonymous": false,
      "inputs": [
        {
          "indexed": true,
          "internalType": "address",
          "name": "user",
          "type": "address"
        },
        {
          "indexed": false,
          "internalType": "uint256",
          "name": "amount",
          "type": "uint256"
        }
      ],
      "name": "EmergencyWithdraw",
      "type": "event"
    },
    {
      "anonymous": false,
      "inputs": [
        {
          "indexed": true,
          "internalType": "address",
          "name": "user",
          "type": "address"
        },
        {
          "indexed": false,
          "internalType": "uint256",
          "name": "amount",
          "type": "uint256"
        }
      ],
      "name": "Withdraw",
      "type": "event"
    },
    {
      "inputs": [
        {
          "internalType": "uint256",
          "name": "",
          "type": "uint256"
        }
      ],
      "name": "addressList",
      "outputs": [
        {
          "internalType": "address",
          "name": "",
          "type": "address"
        }
      ],
      "stateMutability": "view",
      "type": "function"
    },
    {
      "inputs": [],
      "name": "bonusEndBlock",
      "outputs": [
        {
          "internalType": "uint256",
          "name": "",
          "type": "uint256"
        }
      ],
      "stateMutability": "view",
      "type": "function"
    },
    {
      "inputs": [],
      "name": "poolInfo",
      "outputs": [
        {
          "internalType": "uint256",
          "name": "lastRewardBlock",
          "type": "uint256"
        },
        {
          "internalType": "uint256",
          "name": "accRewardPerShare",
          "type": "uint256"
        }
      ],
      "stateMutability": "view",
      "type": "function"
    },
    {
      "inputs": [],
      "name": "rewardPerBlock",
      "outputs": [
        {
          "internalType": "uint256",
          "name": "",
          "type": "uint256"
        }
      ],
      "stateMutability": "view",
      "type": "function"
    },
    {
      "inputs": [],
      "name": "startBlock",
      "outputs": [
        {
          "internalType": "uint256",
          "name": "",
          "type": "uint256"
        }
      ],
      "stateMutability": "view",
      "type": "function"
    },
    {
      "inputs": [],
      "name": "syrup",
      "outputs": [
        {
          "internalType": "contract IBEP20",
          "name": "",
          "type": "address"
        }
      ],
      "stateMutability": "view",
      "type": "function"
    },
    {
      "inputs": [
        {
          "internalType": "address",
          "name": "",
          "type": "address"
        }
      ],
      "name": "userInfo",
      "outputs": [
        {
          "internalType": "uint256",
          "name": "amount",
          "type": "uint256"
        },
        {
          "internalType": "uint256",
          "name": "rewardDebt",
          "type": "uint256"
        },
        {
          "internalType": "uint256",
          "name": "rewardPending",
          "type": "uint256"
        }
      ],
      "stateMutability": "view",
      "type": "function"
    },
    {
      "inputs": [],
      "name": "addressLength",
      "outputs": [
        {
          "internalType": "uint256",
          "name": "",
          "type": "uint256"
        }
      ],
      "stateMutability": "view",
      "type": "function"
    },
    {
      "inputs": [
        {
          "internalType": "address",
          "name": "_user",
          "type": "address"
        }
      ],
      "name": "pendingReward",
      "outputs": [
        {
          "internalType": "uint256",
          "name": "",
          "type": "uint256"
        }
      ],
      "stateMutability": "view",
      "type": "function"
    },
    {
      "inputs": [],
      "name": "updatePool",
      "outputs": [],
      "stateMutability": "nonpayable",
      "type": "function"
    },
    {
      "inputs": [
        {
          "internalType": "uint256",
          "name": "_amount",
          "type": "uint256"
        }
      ],
      "name": "deposit",
      "outputs": [],
      "stateMutability": "nonpayable",
      "type": "function"
    },
    {
      "inputs": [
        {
          "internalType": "uint256",
          "name": "_amount",
          "type": "uint256"
        }
      ],
      "name": "withdraw",
      "outputs": [],
      "stateMutability": "nonpayable",
      "type": "function"
    },
    {
      "inputs": [],
      "name": "emergencyWithdraw",
      "outputs": [],
      "stateMutability": "nonpayable",
      "type": "function"
    }
  ],
  "bytecode": "0x60806040523480156200001157600080fd5b5060405162001cab38038062001cab833981810160405281019062000037919062000180565b836000806101000a81548173ffffffffffffffffffffffffffffffffffffffff021916908373ffffffffffffffffffffffffffffffffffffffff1602179055508260018190555081600681905550806007819055506040518060400160405280600654815260200160008152506002600082015181600001556020820151816001015590505050505050620001f2565b600080fd5b600073ffffffffffffffffffffffffffffffffffffffff82169050919050565b6000620000f982620000cc565b9050919050565b60006200010d82620000ec565b9050919050565b6200011f8162000100565b81146200012b57600080fd5b50565b6000815190506200013f8162000114565b92915050565b6000819050919050565b6200015a8162000145565b81146200016657600080fd5b50565b6000815190506200017a816200014f565b92915050565b600080600080608085870312156200019d576200019c620000c7565b5b6000620001ad878288016200012e565b9450506020620001c08782880162000169565b9350506040620001d38782880162000169565b9250506060620001e68782880162000169565b91505092959194509250565b611aa980620002026000396000f3fe608060405234801561001057600080fd5b50600436106100cf5760003560e01c80638ae39cac1161008c578063db2e21bc11610066578063db2e21bc14610205578063dc8818881461020f578063e3161ddd1461022d578063f40f0f5214610237576100cf565b80638ae39cac1461019b578063b6b55f25146101b9578063b810fb43146101d5576100cf565b80631959a002146100d45780631aed6553146101065780632e1a7d4d1461012457806348cd4cb1146101405780635a2f3d091461015e57806386a952c41461017d575b600080fd5b6100ee60048036038101906100e9919061124e565b610267565b6040516100fd93929190611294565b60405180910390f35b61010e610291565b60405161011b91906112cb565b60405180910390f35b61013e60048036038101906101399190611312565b610297565b005b6101486104ca565b60405161015591906112cb565b60405180910390f35b6101666104d0565b60405161017492919061133f565b60405180910390f35b6101856104e2565b60405161019291906113c7565b60405180910390f35b6101a3610506565b6040516101b091906112cb565b60405180910390f35b6101d360048036038101906101ce9190611312565b61050c565b005b6101ef60048036038101906101ea9190611312565b61078b565b6040516101fc91906113f1565b60405180910390f35b61020d6107ca565b005b6102176108cf565b60405161022491906112cb565b60405180910390f35b6102356108dc565b005b610251600480360381019061024c919061124e565b610a2b565b60405161025e91906112cb565b60405180910390f35b60046020528060005260406000206000915090508060000154908060010154908060020154905083565b60075481565b600081116102da576040517f08c379a00000000000000000000000000000000000000000000000000000000081526004016102d190611469565b60405180910390fd5b6000600460003373ffffffffffffffffffffffffffffffffffffffff1673ffffffffffffffffffffffffffffffffffffffff16815260200190815260200160002090508181600001541015610364576040517f08c379a000000000000000000000000000000000000000000000000000000000815260040161035b906114d5565b60405180910390fd5b61036c6108dc565b6103b7338360008054906101000a900473ffffffffffffffffffffffffffffffffffffffff1673ffffffffffffffffffffffffffffffffffffffff16610c079092919063ffffffff16565b610416816002015461040883600101546103fa64e8d4a510006103ec6002600101548860000154610c8d90919063ffffffff16565b610d0890919063ffffffff16565b610d5290919063ffffffff16565b610d9c90919063ffffffff16565b8160020181905550610435828260000154610d5290919063ffffffff16565b816000018190555061047064e8d4a510006104626002600101548460000154610c8d90919063ffffffff16565b610d0890919063ffffffff16565b81600101819055503373ffffffffffffffffffffffffffffffffffffffff167f884edad9ce6fa2440d8a54cc123490eb96d2768479d49ff9c7366125a9424364836040516104be91906112cb565b60405180910390a25050565b60065481565b60028060000154908060010154905082565b60008054906101000a900473ffffffffffffffffffffffffffffffffffffffff1681565b60015481565b6000811161054f576040517f08c379a000000000000000000000000000000000000000000000000000000000815260040161054690611469565b60405180910390fd5b6000600460003373ffffffffffffffffffffffffffffffffffffffff1673ffffffffffffffffffffffffffffffffffffffff168152602001908152602001600020905061059a6108dc565b6105e733308460008054906101000a900473ffffffffffffffffffffffffffffffffffffffff1673ffffffffffffffffffffffffffffffffffffffff16610dfa909392919063ffffffff16565b600081600001541480156105ff575060008160020154145b801561060f575060008160010154145b15610678576005339080600181540180825580915050600190039060005260206000200160009091909190916101000a81548173ffffffffffffffffffffffffffffffffffffffff021916908373ffffffffffffffffffffffffffffffffffffffff1602179055505b6106d781600201546106c983600101546106bb64e8d4a510006106ad6002600101548860000154610c8d90919063ffffffff16565b610d0890919063ffffffff16565b610d5290919063ffffffff16565b610d9c90919063ffffffff16565b81600201819055506106f6828260000154610d9c90919063ffffffff16565b816000018190555061073164e8d4a510006107236002600101548460000154610c8d90919063ffffffff16565b610d0890919063ffffffff16565b81600101819055503373ffffffffffffffffffffffffffffffffffffffff167fe1fffcc4923d04b559f4d29a8bfc6cda04eb5b0d3c460751c2402c5c5cc9109c8360405161077f91906112cb565b60405180910390a25050565b6005818154811061079b57600080fd5b906000526020600020016000915054906101000a900473ffffffffffffffffffffffffffffffffffffffff1681565b6000600460003373ffffffffffffffffffffffffffffffffffffffff1673ffffffffffffffffffffffffffffffffffffffff168152602001908152602001600020905061085c33826000015460008054906101000a900473ffffffffffffffffffffffffffffffffffffffff1673ffffffffffffffffffffffffffffffffffffffff16610c079092919063ffffffff16565b3373ffffffffffffffffffffffffffffffffffffffff167f5fafa99d0643513820be26656b45130b01e1c03062e1266bf36f88cbd3bd969582600001546040516108a691906112cb565b60405180910390a260008160000181905550600081600101819055506000816002018190555050565b6000600580549050905090565b60026000015443116108ed57610a29565b60008060009054906101000a900473ffffffffffffffffffffffffffffffffffffffff1673ffffffffffffffffffffffffffffffffffffffff166370a08231306040518263ffffffff1660e01b815260040161094991906113f1565b602060405180830381865afa158015610966573d6000803e3d6000fd5b505050506040513d601f19601f8201168201806040525081019061098a919061150a565b905060008114156109a5574360026000018190555050610a29565b60006109b660026000015443610e83565b905060006109cf60015483610c8d90919063ffffffff16565b9050610a126109fe846109f064e8d4a5100085610c8d90919063ffffffff16565b610d0890919063ffffffff16565b600260010154610d9c90919063ffffffff16565b600260010181905550436002600001819055505050505b565b600080600290506000600460008573ffffffffffffffffffffffffffffffffffffffff1673ffffffffffffffffffffffffffffffffffffffff168152602001908152602001600020905060008260010154905060008060009054906101000a900473ffffffffffffffffffffffffffffffffffffffff1673ffffffffffffffffffffffffffffffffffffffff166370a08231306040518263ffffffff1660e01b8152600401610ada91906113f1565b602060405180830381865afa158015610af7573d6000803e3d6000fd5b505050506040513d601f19601f82011682018060405250810190610b1b919061150a565b9050836000015443118015610b31575060008114155b15610ba2576000610b46856000015443610e83565b90506000610b5f60015483610c8d90919063ffffffff16565b9050610b9d610b8e84610b8064e8d4a5100085610c8d90919063ffffffff16565b610d0890919063ffffffff16565b85610d9c90919063ffffffff16565b935050505b610bfc8360020154610bee8560010154610be064e8d4a51000610bd2888a60000154610c8d90919063ffffffff16565b610d0890919063ffffffff16565b610d5290919063ffffffff16565b610d9c90919063ffffffff16565b945050505050919050565b610c888363a9059cbb60e01b8484604051602401610c26929190611537565b604051602081830303815290604052907bffffffffffffffffffffffffffffffffffffffffffffffffffffffff19166020820180517bffffffffffffffffffffffffffffffffffffffffffffffffffffffff8381831617835250505050610ed8565b505050565b600080831415610ca05760009050610d02565b60008284610cae919061158f565b9050828482610cbd9190611618565b14610cfd576040517f08c379a0000000000000000000000000000000000000000000000000000000008152600401610cf4906116bb565b60405180910390fd5b809150505b92915050565b6000610d4a83836040518060400160405280601a81526020017f536166654d6174683a206469766973696f6e206279207a65726f000000000000815250610f9f565b905092915050565b6000610d9483836040518060400160405280601e81526020017f536166654d6174683a207375627472616374696f6e206f766572666c6f770000815250611002565b905092915050565b6000808284610dab91906116db565b905083811015610df0576040517f08c379a0000000000000000000000000000000000000000000000000000000008152600401610de79061177d565b60405180910390fd5b8091505092915050565b610e7d846323b872dd60e01b858585604051602401610e1b9392919061179d565b604051602081830303815290604052907bffffffffffffffffffffffffffffffffffffffffffffffffffffffff19166020820180517bffffffffffffffffffffffffffffffffffffffffffffffffffffffff8381831617835250505050610ed8565b50505050565b60006007548211610ea857610ea18383610d5290919063ffffffff16565b9050610ed2565b6007548310610eba5760009050610ed2565b610ecf83600754610d5290919063ffffffff16565b90505b92915050565b6000610f3a826040518060400160405280602081526020017f5361666542455032303a206c6f772d6c6576656c2063616c6c206661696c65648152508573ffffffffffffffffffffffffffffffffffffffff166110669092919063ffffffff16565b9050600081511115610f9a5780806020019051810190610f5a919061180c565b610f99576040517f08c379a0000000000000000000000000000000000000000000000000000000008152600401610f90906118ab565b60405180910390fd5b5b505050565b60008083118290610fe6576040517f08c379a0000000000000000000000000000000000000000000000000000000008152600401610fdd9190611953565b60405180910390fd5b5060008385610ff59190611618565b9050809150509392505050565b600083831115829061104a576040517f08c379a00000000000000000000000000000000000000000000000000000000081526004016110419190611953565b60405180910390fd5b50600083856110599190611975565b9050809150509392505050565b6060611075848460008561107e565b90509392505050565b6060611089856111a0565b6110c8576040517f08c379a00000000000000000000000000000000000000000000000000000000081526004016110bf906119f5565b60405180910390fd5b6000808673ffffffffffffffffffffffffffffffffffffffff1685876040516110f19190611a5c565b60006040518083038185875af1925050503d806000811461112e576040519150601f19603f3d011682016040523d82523d6000602084013e611133565b606091505b50915091508115611148578092505050611198565b60008151111561115b5780518082602001fd5b836040517f08c379a000000000000000000000000000000000000000000000000000000000815260040161118f9190611953565b60405180910390fd5b949350505050565b60008060007fc5d2460186f7233c927e7db2dcc703c0e500b653ca82273b7bfad8045d85a47060001b9050833f91508082141580156111e257506000801b8214155b92505050919050565b600080fd5b600073ffffffffffffffffffffffffffffffffffffffff82169050919050565b600061121b826111f0565b9050919050565b61122b81611210565b811461123657600080fd5b50565b60008135905061124881611222565b92915050565b600060208284031215611264576112636111eb565b5b600061127284828501611239565b91505092915050565b6000819050919050565b61128e8161127b565b82525050565b60006060820190506112a96000830186611285565b6112b66020830185611285565b6112c36040830184611285565b949350505050565b60006020820190506112e06000830184611285565b92915050565b6112ef8161127b565b81146112fa57600080fd5b50565b60008135905061130c816112e6565b92915050565b600060208284031215611328576113276111eb565b5b6000611336848285016112fd565b91505092915050565b60006040820190506113546000830185611285565b6113616020830184611285565b9392505050565b6000819050919050565b600061138d611388611383846111f0565b611368565b6111f0565b9050919050565b600061139f82611372565b9050919050565b60006113b182611394565b9050919050565b6113c1816113a6565b82525050565b60006020820190506113dc60008301846113b8565b92915050565b6113eb81611210565b82525050565b600060208201905061140660008301846113e2565b92915050565b600082825260208201905092915050565b7f616d6f756e742030000000000000000000000000000000000000000000000000600082015250565b600061145360088361140c565b915061145e8261141d565b602082019050919050565b6000602082019050818103600083015261148281611446565b9050919050565b7f77697468647261773a206e6f7420656e6f756768000000000000000000000000600082015250565b60006114bf60148361140c565b91506114ca82611489565b602082019050919050565b600060208201905081810360008301526114ee816114b2565b9050919050565b600081519050611504816112e6565b92915050565b6000602082840312156115205761151f6111eb565b5b600061152e848285016114f5565b91505092915050565b600060408201905061154c60008301856113e2565b6115596020830184611285565b9392505050565b7f4e487b7100000000000000000000000000000000000000000000000000000000600052601160045260246000fd5b600061159a8261127b565b91506115a58361127b565b9250817fffffffffffffffffffffffffffffffffffffffffffffffffffffffffffffffff04831182151516156115de576115dd611560565b5b828202905092915050565b7f4e487b7100000000000000000000000000000000000000000000000000000000600052601260045260246000fd5b60006116238261127b565b915061162e8361127b565b92508261163e5761163d6115e9565b5b828204905092915050565b7f536166654d6174683a206d756c7469706c69636174696f6e206f766572666c6f60008201527f7700000000000000000000000000000000000000000000000000000000000000602082015250565b60006116a560218361140c565b91506116b082611649565b604082019050919050565b600060208201905081810360008301526116d481611698565b9050919050565b60006116e68261127b565b91506116f18361127b565b9250827fffffffffffffffffffffffffffffffffffffffffffffffffffffffffffffffff0382111561172657611725611560565b5b828201905092915050565b7f536166654d6174683a206164646974696f6e206f766572666c6f770000000000600082015250565b6000611767601b8361140c565b915061177282611731565b602082019050919050565b600060208201905081810360008301526117968161175a565b9050919050565b60006060820190506117b260008301866113e2565b6117bf60208301856113e2565b6117cc6040830184611285565b949350505050565b60008115159050919050565b6117e9816117d4565b81146117f457600080fd5b50565b600081519050611806816117e0565b92915050565b600060208284031215611822576118216111eb565b5b6000611830848285016117f7565b91505092915050565b7f5361666542455032303a204245503230206f7065726174696f6e20646964206e60008201527f6f74207375636365656400000000000000000000000000000000000000000000602082015250565b6000611895602a8361140c565b91506118a082611839565b604082019050919050565b600060208201905081810360008301526118c481611888565b9050919050565b600081519050919050565b60005b838110156118f45780820151818401526020810190506118d9565b83811115611903576000848401525b50505050565b6000601f19601f8301169050919050565b6000611925826118cb565b61192f818561140c565b935061193f8185602086016118d6565b61194881611909565b840191505092915050565b6000602082019050818103600083015261196d818461191a565b905092915050565b60006119808261127b565b915061198b8361127b565b92508282101561199e5761199d611560565b5b828203905092915050565b7f416464726573733a2063616c6c20746f206e6f6e2d636f6e7472616374000000600082015250565b60006119df601d8361140c565b91506119ea826119a9565b602082019050919050565b60006020820190508181036000830152611a0e816119d2565b9050919050565b600081519050919050565b600081905092915050565b6000611a3682611a15565b611a408185611a20565b9350611a508185602086016118d6565b80840191505092915050565b6000611a688284611a2b565b91508190509291505056fea2646970667358221220188183e42fed6b5a8750e74629abca3aaf62c47462162d1cd8ba66cc4ff7222764736f6c634300080b0033",
  "immutableReferences": {},
  "source": "// SPDX-License-Identifier: MIT\n\npragma solidity ^0.8.11;\n\nimport '@pancakeswap/pancake-swap-lib/contracts/math/SafeMath.sol';\nimport '@pancakeswap/pancake-swap-lib/contracts/token/BEP20/IBEP20.sol';\nimport '@pancakeswap/pancake-swap-lib/contracts/token/BEP20/SafeBEP20.sol';\n\n\n// SousChef is the chef of new tokens. He can make yummy food and he is a fair guy as well as MasterChef.\ncontract SousChef {\n    using SafeMath for uint256;\n    using SafeBEP20 for IBEP20;\n\n    // Info of each user.\n    struct UserInfo {\n        uint256 amount;   // How many SYRUP tokens the user has provided.\n        uint256 rewardDebt;  // Reward debt. See explanation below.\n        uint256 rewardPending;\n        //\n        // We do some fancy math here. Basically, any point in time, the amount of SYRUPs\n        // entitled to a user but is pending to be distributed is:\n        //\n        //   pending reward = (user.amount * pool.accRewardPerShare) - user.rewardDebt + user.rewardPending\n        //\n        // Whenever a user deposits or withdraws SYRUP tokens to a pool. Here's what happens:\n        //   1. The pool's `accRewardPerShare` (and `lastRewardBlock`) gets updated.\n        //   2. User receives the pending reward sent to his/her address.\n        //   3. User's `amount` gets updated.\n        //   3. User's `amount` gets updated.\n        //   4. User's `rewardDebt` gets updated.\n    }\n\n    // Info of Pool\n    struct PoolInfo {\n        uint256 lastRewardBlock;  // Last block number that Rewards distribution occurs.\n        uint256 accRewardPerShare; // Accumulated reward per share, times 1e12. See below.\n    }\n\n    // The SYRUP TOKEN!\n    IBEP20 public syrup;\n    // rewards created per block.\n    uint256 public rewardPerBlock;\n\n    // Info.\n    PoolInfo public poolInfo;\n    // Info of each user that stakes Syrup tokens.\n    mapping (address => UserInfo) public userInfo;\n\n    // addresses list\n    address[] public addressList;\n\n    // The block number when mining starts.\n    uint256 public startBlock;\n    // The block number when mining ends.\n    uint256 public bonusEndBlock;\n\n    event Deposit(address indexed user, uint256 amount);\n    event Withdraw(address indexed user, uint256 amount);\n    event EmergencyWithdraw(address indexed user, uint256 amount);\n\n    constructor(\n        IBEP20 _syrup,\n        uint256 _rewardPerBlock,\n        uint256 _startBlock,\n        uint256 _endBlock\n    ) public {\n        syrup = _syrup;\n        rewardPerBlock = _rewardPerBlock;\n        startBlock = _startBlock;\n        bonusEndBlock = _endBlock;\n\n        // staking pool\n        poolInfo = PoolInfo({\n            lastRewardBlock: startBlock,\n            accRewardPerShare: 0\n        });\n    }\n\n    function addressLength() external view returns (uint256) {\n        return addressList.length;\n    }\n\n    // Return reward multiplier over the given _from to _to block.\n    function getMultiplier(uint256 _from, uint256 _to) internal view returns (uint256) {\n        if (_to <= bonusEndBlock) {\n            return _to.sub(_from);\n        } else if (_from >= bonusEndBlock) {\n            return 0;\n        } else {\n            return bonusEndBlock.sub(_from);\n        }\n    }\n\n    // View function to see pending Tokens on frontend.\n    function pendingReward(address _user) external view returns (uint256) {\n        PoolInfo storage pool = poolInfo;\n        UserInfo storage user = userInfo[_user];\n        uint256 accRewardPerShare = pool.accRewardPerShare;\n        uint256 stakedSupply = syrup.balanceOf(address(this));\n        if (block.number > pool.lastRewardBlock && stakedSupply != 0) {\n            uint256 multiplier = getMultiplier(pool.lastRewardBlock, block.number);\n            uint256 tokenReward = multiplier.mul(rewardPerBlock);\n            accRewardPerShare = accRewardPerShare.add(tokenReward.mul(1e12).div(stakedSupply));\n        }\n        return user.amount.mul(accRewardPerShare).div(1e12).sub(user.rewardDebt).add(user.rewardPending);\n    }\n\n    // Update reward variables of the given pool to be up-to-date.\n    function updatePool() public {\n        if (block.number <= poolInfo.lastRewardBlock) {\n            return;\n        }\n        uint256 syrupSupply = syrup.balanceOf(address(this));\n        if (syrupSupply == 0) {\n            poolInfo.lastRewardBlock = block.number;\n            return;\n        }\n        uint256 multiplier = getMultiplier(poolInfo.lastRewardBlock, block.number);\n        uint256 tokenReward = multiplier.mul(rewardPerBlock);\n\n        poolInfo.accRewardPerShare = poolInfo.accRewardPerShare.add(tokenReward.mul(1e12).div(syrupSupply));\n        poolInfo.lastRewardBlock = block.number;\n    }\n\n\n    // Deposit Syrup tokens to SousChef for Reward allocation.\n    function deposit(uint256 _amount) public {\n        require (_amount > 0, 'amount 0');\n        UserInfo storage user = userInfo[msg.sender];\n        updatePool();\n        syrup.safeTransferFrom(address(msg.sender), address(this), _amount);\n        // The deposit behavior before farming will result in duplicate addresses, and thus we will manually remove them when airdropping.\n        if (user.amount == 0 && user.rewardPending == 0 && user.rewardDebt == 0) {\n            addressList.push(address(msg.sender));\n        }\n        user.rewardPending = user.amount.mul(poolInfo.accRewardPerShare).div(1e12).sub(user.rewardDebt).add(user.rewardPending);\n        user.amount = user.amount.add(_amount);\n        user.rewardDebt = user.amount.mul(poolInfo.accRewardPerShare).div(1e12);\n\n        emit Deposit(msg.sender, _amount);\n    }\n\n    // Withdraw Syrup tokens from SousChef.\n    function withdraw(uint256 _amount) public {\n        require (_amount > 0, 'amount 0');\n        UserInfo storage user = userInfo[msg.sender];\n        require(user.amount >= _amount, \"withdraw: not enough\");\n\n        updatePool();\n        syrup.safeTransfer(address(msg.sender), _amount);\n\n        user.rewardPending = user.amount.mul(poolInfo.accRewardPerShare).div(1e12).sub(user.rewardDebt).add(user.rewardPending);\n        user.amount = user.amount.sub(_amount);\n        user.rewardDebt = user.amount.mul(poolInfo.accRewardPerShare).div(1e12);\n\n        emit Withdraw(msg.sender, _amount);\n    }\n\n    // Withdraw without caring about rewards. EMERGENCY ONLY.\n    function emergencyWithdraw() public {\n        UserInfo storage user = userInfo[msg.sender];\n        syrup.safeTransfer(address(msg.sender), user.amount);\n        emit EmergencyWithdraw(msg.sender, user.amount);\n        user.amount = 0;\n        user.rewardDebt = 0;\n        user.rewardPending = 0;\n    }\n\n}",
  "sourcePath": "/Users/user/Desktop/Work/projectTokens/contracts/staking.sol",
  "compiler": {
    "name": "solc",
    "version": "0.8.11+commit.d7f03943.Emscripten.clang"
  },
  "schemaVersion": "3.4.5",
  "updatedAt": "2022-04-15T22:58:58.031Z",
  "devdoc": {
    "kind": "dev",
    "methods": {},
    "version": 1
  },
  "userdoc": {
    "kind": "user",
    "methods": {},
    "version": 1
  }
}